:100000000C9446000C946F000C946F000C946F00DD
:100010000C946F000C946F000C945B010C946F00B7
:100020000C946F000C946F000C946F000C942D07CF
:100030000C946F000C946F000C948C060C946F0061
:100040000C946F000C946F000C946F000C946F0074
:100050000C946F000C946F000C946F000C944F077D
:100060000C946F000C946F00DC01C00194018B01B3
:1000700091013A022F02AF088F078F07AC08B8082A
:10008000A808BF08BB08C3087B084D0811241FBE81
:10009000CFEFD8E0DEBFCDBF14BE0FB6F894A89561
:1000A00080916000886180936000109260000FBEB4
:1000B00011E0A0E0B1E0ECE9FAE202C005900D9297
:1000C000A032B107D9F722E0A0E2B1E001C01D9251
:1000D000A334B207E1F70E94EC0B0C94920A0C9443
:1000E0000000089580E090E008950895DF92EF9277
:1000F000FF920F931F93CF93DF93F89414B817B820
:100100001AB815B818B81BB8529A5A9A14BC85E098
:1001100085BD8FEF87BD82E080936E0010928000D6
:10012000109281002FE83BE03093890020938800F3
:1001300080936F005398239891EA9093B000809336
:10014000B1001092B4001092B3008BE080BF83E046
:1001500080937F0086E080937C0083E880937A0020
:1001600080917A00806480937A0080917A0086FD85
:10017000FCCF10927C0083EA80937A0081E0809328
:100180007B0081E090E00E9436158F3F11F0809354
:10019000660010920C02C1E0C093E501C0932902F1
:1001A0001092030210923D0280E990E00E94361501
:1001B0008093020280910202887311F0C0930202C0
:1001C00010922D0210922C028FEF90E090932B0250
:1001D00080932A02109208021092090210920A02D9
:1001E00010920B0281E08093230182E49FE09093C0
:1001F0003C0280933B0280EB90E00E943615C82FB2
:1002000081EB90E00E9436152C2F30E0382B309394
:100210003F0220933E0285E090E00E9436158093D5
:10022000420289E090E00E94361580932E028CE015
:1002300090E00E9436158093400284E190E00E9495
:100240003615809341025DE0E52E52E0F52E06EE74
:1002500011E0C0E2D0E0CE010E943615D82ECE01CA
:1002600001960E9436152D2D30E0322F2227282BA3
:10027000F701219331937F01CE01C0960E9436157C
:10028000D82ECE01C1960E9436152D2D30E0322F8A
:100290002227282BF801219331938F012296CC330A
:1002A000D105C9F67894DF91CF911F910F91FF90FE
:1002B000EF90DF9008951F920F920FB60F921124C6
:1002C0008F930FB6F894A895809160008861809311
:1002D0006000109260000FBE8F910F900FBE0F90C4
:1002E0001F9018953C01EB0110E099249A9484E04A
:1002F000C82E96E0A92E23E8B22E38E1D32E49E28B
:10030000E42EE0912301F0E0E730F105D0F7EC5C5A
:10031000FF4F0C94FA14112309F405C1C092230174
:1003200011E0FE010995EDCF80910C02811105C10C
:10033000F894A0927C00B0927A0080917A00806458
:1003400080937A0080917A0086FDFCCF80917800BE
:100350009091790078948B3AE2E09E070CF0E6C029
:100360008938F2E09F070CF0EFC0873692400CF41A
:10037000E4C0559A549A3B9A3A9A3D983C98C1CF1A
:10038000559854983B9A3A9A3D983C98EFECF7E090
:100390003197F1F700C00000559854983B983A986F
:1003A0003D983C98FFEF21EE84E0F15020408040E2
:1003B000E1F700C00000A5CFF89480B7877F80BF29
:1003C00080917A008F7780937A0014B817B81AB8A2
:1003D00015B818B81BB80FB6F894A895D09260005D
:1003E0000FBEE092600080916000806480936000A6
:1003F00083B7817F846083BFF89483B7816083BFB4
:100400007894889583B78E7F83BF789410920C027E
:10041000529A5A9A80917A00806880937A0087E590
:1004200092E00197F1F700C0000080B7886180BFBB
:10043000559A549A3B9A3A9A3D9A3C9AEFE1FEE4D7
:100440003197F1F700C0000080910C0281115BC070
:10045000559854983B983A983D983C9852CF809143
:100460002101811125C01092B3001092B4001092A6
:10047000220147CF4899ECCF559A54983B983A9827
:100480003D983C988FEC97E00197F1F700C0000091
:10049000559854983B983A983D983C989FEFE1EED8
:1004A000F4E09150E040F040E1F700C0000029CFB7
:1004B0009091210180912201981709F422CF809117
:1004C00021018093220180912101813009F450C0E3
:1004D000809121011092B3009092B4008230D9F142
:1004E0009092B3009092B4008FE295E70197F1F7F4
:1004F00000C0000080914102909140029093B300AF
:100500008093B400FECE559A549A3B983A983D9801
:100510003C98FFEF20E782E0F15020408040E1F777
:1005200000C0000095CFF3010995F8CE5598549876
:100530003B9A3A9A3D983C98E4CE559A549A3B9807
:100540003A983D983C98DDCE559854983B983A9807
:100550003D9A3C9AD6CEEFE2F5E73197F1F700C02D
:10056000000080912E021092B3008093B400C9CE97
:100570009092B3001092B4008FE295E70197F1F7E3
:1005800000C00000809142028093B3001092B4003A
:10059000B8CE07C0EFECF7E03197F1F700C00000EC
:1005A00001970097B9F708958093B3006093B40062
:1005B00008958FEF8093B3008093B4008FE090E0B4
:1005C000EFECF7E03197F1F700C000000197C1F7B9
:1005D000089580910C0281111EC0F89487E08093E9
:1005E0007C0083E880937A0080917A008064809315
:1005F0007A0080917A0086FDFCCF809178009091FE
:10060000790010927C0023EA20937A0021E0209365
:100610007B00789408958FEF9FEF089580910C02EE
:1006200081111EC0F89488EC80937C0087E8809349
:100630007A0080917A00806480937A0080917A00B9
:1006400086FDFCCF809178009091790010927C001B
:1006500023EA20937A0021E020937B007894089588
:100660008FEF9FEF08950F931F93CF93DF93E0E0F9
:10067000F0E080E003EA11E0D6E0C3E8A1E0B0E0FA
:1006800060E870E0F894D0937C00C0937A00909179
:100690007A00906490937A0090917A0096FDFCCF56
:1006A0002091780030917900217090917A009064C7
:1006B00090937A0090917A0096FDFCCF409178005B
:1006C0005091790010927C0000937A0010937B0087
:1006D00078944170241303C06150710999F6222364
:1006E00039F09D010E2E01C0220F0A94EAF7822BE9
:1006F0003196E830F10509F0C3CFDF91CF911F911A
:100700000F91089580910001982F990F990F990FDB
:1007100089279091200121E0290F20932001282F83
:1007200022952695277082279695969589278093FE
:100730000001089580930001089580910C028111B9
:1007400016C0F89486E080937C0083E880937A005A
:1007500080917A00806480937A0080917A0086FD8F
:10076000FCCF8091780090917900789408958FEF74
:100770009FEF08952F923F924F925F926F927F92D8
:100780008F929F92AF92BF92CF92DF92EF92FF92A1
:100790000F931F93CF93DF9300D000D000D0CDB73D
:1007A000DEB71C01DC0112960D90BC91A02DBE831A
:1007B000AD83A438E3E0BE070CF0CBC08091E60126
:1007C0009091E7018A179B0708F48CC10091E8011A
:1007D0001091E9010A171B0708F422C20091EA01EF
:1007E0001091EB010A171B0708F428C20091EC01D5
:1007F0001091ED010A171B0708F424C20091EE01C5
:100800001091EF010A171B0708F425C20091F001AF
:100810001091F1010A171B0708F4E6C10091F201DB
:100820001091F3010A171B0708F41EC20091F4018E
:100830001091F5010A171B0708F41FC20091F60179
:100840001091F7010A171B0708F425C20091F8015F
:100850001091F9010A171B0708F426C20091FA014A
:100860001091FB010A171B0708F422C20091FC013A
:100870001091FD010A171B0708F423C20091FE0125
:100880001091FF010A171B0708F424C2009100020F
:10089000109101020A171B0708F425C280E090E0BE
:1008A000A0EDB0E489839A83AB83BC832CE0E22E75
:1008B000F12CF701EE0FFF1FEA51FE4F808191816D
:1008C000B801681B790B80E090E00E9481139B01C6
:1008D000AC010E9468126B017C01AD81BE81BD013B
:1008E000BB0F880B990B0E9483134B015C01B8016D
:1008F00080E090E00E9481132B013C0129813A8124
:100900004B815C81C701B6010E9438149B01AC0188
:10091000C301B2010E9467129B01AC01C501B40181
:100920000E94671220E030E040E251E40E94381457
:100930000E944B138B01C701B6010E944B13AB0100
:10094000BC01C801BA010E94A5146983ED81FE8132
:10095000CBC0DC01CD90DC9080910D0290910E0215
:100960008C159D0508F4DFC0BFEFB98300910F021D
:10097000109110020C151D0508F456C100911102CA
:10098000109112020C151D0508F453C100911302B9
:10099000109114020C151D0508F458C100911502A0
:1009A000109116020C151D0508F459C1009117028B
:1009B000109118020C151D0508F4B7C0009119021A
:1009C00010911A020C151D0508F452C100911B026A
:1009D00010911C020C151D0508F453C100911D0255
:1009E00010911E020C151D0508F450C100911F0244
:1009F000109120020C151D0508F451C1009121022F
:100A0000109122020C151D0508F456C10091230215
:100A1000109124020C151D0508F457C10091250200
:100A2000109126020C151D0508F458C100912702EB
:100A3000109128020C151D0508F459C11AE5B98159
:100A4000BF3F09F459C1ED81FE81BF01FF0F880B43
:100A5000990B0E9483134B015C01F9816F2F70E0A9
:100A600080E090E00E9481136B017C01A50194015C
:100A700060E070E081E694E40E9467129B01AC01A3
:100A8000C701B6010E9438146B017C01612F70E030
:100A900080E090E00E9481132B013C0120E030E0D7
:100AA0004FE254E4C501B4010E9467129B01AC01FE
:100AB000C301B2010E9438149B01AC01C701B60109
:100AC0000E94681220E030E048E453E40E94D9120A
:100AD00020E030E044E052E40E9468120E94521389
:100AE000862F08C01982FD01ED3BF2400CF007C1D2
:100AF00089818F5D26960FB6F894DEBF0FBECDBFFD
:100B0000DF91CF911F910F91FF90EF90DF90CF90E9
:100B1000BF90AF909F908F907F906F905F904F901D
:100B20003F902F90089581E2E5CFF5E03F2EE5E07C
:100B3000F0E0EE0FFF1FE55FFD4F80819181B8016E
:100B4000681B790B80E090E00E9481139B01AC014F
:100B50000E9468124B015C01B601DD0C880B990BF9
:100B60000E9483132B013C01B80180E090E00E94B9
:100B700081136B017C01632D70E080E090E00E94A6
:100B8000811320E030E040E05FE30E94381420E071
:100B900030E0A9010E946812A50194010E94381456
:100BA0009B01AC01C701B6010E9467129B01AC0119
:100BB000C301B2010E94671220E030E040E251E43C
:100BC0000E9438140E944B138B01C501B4010E948E
:100BD0004B13AB01BC01C801BA010E94A514162F2A
:100BE0006F3F09F02CCF84CF65E085E090E07C0179
:100BF000F1E0EF1AF10870E080E090E00E948113CC
:100C000020E030E040E05FE30E94381420E030E074
:100C1000A9010E94681269837A838B839C8349CEE1
:100C200061E081E090E0E3CF33243394E1E0F0E051
:100C300080CF82E0382EE2E0F0E07BCF62E082E01D
:100C400090E0D5CF63E083E090E0D1CFB3E03B2EDE
:100C5000E3E0F0E06ECF64E084E090E0C8CFA4E091
:100C60003A2EE4E0F0E065CF66E086E090E0BFCFAA
:100C7000E6E03E2EE6E0F0E05CCF67E087E090E063
:100C8000B6CF77E0372EE7E0F0E053CF68E0362EBE
:100C9000E8E0F0E04ECF68E088E090E0A8CF59E0CF
:100CA000352EE9E0F0E045CF69E089E090E09FCFA4
:100CB0006AE08AE090E09BCF4AE0342EEAE0F0E080
:100CC00038CF6BE08BE090E092CF3BE0332EEBE04F
:100CD000F0E02FCF6CE08CE090E089CF2CE0322E5A
:100CE000ECE0F0E026CF6DE08DE090E080CF9DE07D
:100CF000392EEDE0F0E01DCF81E2810FFBCED10176
:100D0000CD90DC9080910D0290910E028C159D0586
:100D100008F02CCE10E093CE1F920F920FB60F92D8
:100D200011242F933F934F935F936F937F938F93F0
:100D30009F93AF93BF93EF93FF9320912C02309139
:100D40002D0280912A0290912B02820F931F909383
:100D50002D0280932C028FEF90E090932B028093D2
:100D60002A028FEF87BD8091080290910902A0911D
:100D70000A02B0910B020196A11DB11D80930802D9
:100D800090930902A0930A02B0930B0280910C0287
:100D900081110FC080913B0290913C0220912C0266
:100DA00030912D028217930720F480912301843023
:100DB00089F0FF91EF91BF91AF919F918F917F91BA
:100DC0006F915F914F913F912F910F900FBE0F90B8
:100DD0001F901895E0910301F09104010995009787
:100DE00041F30E940F0A81110AC00E9457129C0110
:100DF000332730932B0220932A0287BDDACFE0916C
:100E00000101F0910201099510922D0210922C021D
:100E1000D0CF80FF11C0559A81FF11C0549A82FF34
:100E200011C03B9A83FF11C03A9A84FF11C03D9ACA
:100E300085FD11C03C980895559881FDEFCF5498D9
:100E400082FDEFCF3B9883FDEFCF3A9884FDEFCF43
:100E50003D9885FFEFCF3C9A08951F920F920FB6F1
:100E60000F9211248F939F9310928100109285000E
:100E70001092840081E08093E50180932902109212
:100E80000C0210927C0093EA90937A0080937B008E
:100E90009F918F910F900FBE0F901F9018951F92EA
:100EA0000F920FB60F9211242F933F934F935F939E
:100EB0006F937F938F939F93AF93BF93CF93DF9362
:100EC000EF93FF93209184003091850041E040939F
:100ED0000C028091E5018823A9F1109285001092FF
:100EE00084004093810010923D021092E5018091B0
:100EF00029028823A1F080917A0086FDFCCF8091A1
:100F0000780090917900909307028093060281E027
:100F100080937C0093EA90937A0080937B00FF910A
:100F2000EF91DF91CF91BF91AF919F918F917F9181
:100F30006F915F914F913F912F910F900FBE0F9046
:100F40001F901895C901875891098437994008F076
:100F50004FC026583109A4EFB0E00E940015AA271F
:100F6000BB27883008F47BC04093E50180912902BB
:100F7000811152C080910302E82FF0E0E15DFD4F46
:100F800090913D0290838F5F809303028C3039F6FD
:100F900010928100109285001092840040932902E3
:100FA00010920C02C0913902D0913A028FE292E085
:100FB0000E945609C817D90709F0B1CF80913802AD
:100FC00087FF61C098E7980F933030F053982398CB
:100FD0001092B4001092B30090E0FC01E058F109C7
:100FE000EB30F10508F09BCFE55CFF4F0C94FA1451
:100FF0001092810010928500109284004093E501C8
:101000004093290210920C0210927C0083EA809394
:101010007A0040937B0083CF80917A0086FDFCCFDD
:10102000809178009091790090930502809304025A
:1010300010927C0083EA80937A0081E080937B00A9
:1010400090913D029923D1F0109281001092850079
:10105000109284008093290210920C0260CF21E04C
:1010600030E0F90102C0EE0FFF1F8A95E2F7CF01D1
:1010700090913D02892B80933D0251CF109229021D
:10108000109203024CCFE0910501F091060164E05B
:1010900072E08FE292E0099542CF80912F02823078
:1010A00009F4DDC008F4BAC0833009F4C6C0843046
:1010B00009F0B1C08091210190913502833009F48B
:1010C000E3C0809134021092220123E02093210199
:1010D000809340029093410280912301863009F46D
:1010E0001ECF539A239A1092B4001092B30086E058
:1010F0008093230114CF80912301863099F0539A75
:10110000239A1092B4001092B300559854983B98CB
:101110003A983D983C98109221011092220186E065
:101120008093230181E090E09C0100902F0202C097
:10113000220F331F0A94E2F780913E0290913F0202
:1011400082239323892B09F086C010922101E7CED8
:1011500081E080932301E3CEE0E0F0E00995809107
:101160006E008D7F80936E0016BCE0E0F0E709957D
:1011700010922301D4CE82E080932301D0CE85E06B
:1011800080932301CCCE80912301833009F4C7CE14
:1011900080912301843009F4C2CE539A239A10928D
:1011A000B4001092B30083E080932301B8CE809105
:1011B0002301863009F0B3CE60913E0280EB90E0CF
:1011C0000E943E1560913F0281EB90E00E943E1527
:1011D0006091420285E090E00E943E1560912E02EF
:1011E00089E090E00E943E15609140028CE090E022
:1011F0000E943E156091410284E190E00E943E15FC
:10120000539823981092B4001092B30081E0809319
:10121000230180912F0281115FCF81CE882339F283
:101220008130C9F7809130029091310290933F0252
:1012300080933E02109221014FCF80912101823094
:1012400071F1809133021092220192E0909321017A
:1012500080932E0241CF81E08093210160CE809166
:101260002101813051F0809132021092220191E0EF
:1012700090932101809342022FCF8091320290916E
:1012800042028913F2CF28CF80914102981319CFDF
:101290008091340220914002821315CF1DCF80919E
:1012A000330290912E028913CECF16CFFC0180819C
:1012B0002FEF3FEF2827022E2295207F2025032E97
:1012C000322F22952F700226269532272327220FB0
:1012D000220F220F202581812827022E2295207F90
:1012E0002025032E322F22952F7002262695322795
:1012F0002327220F220F220F202582812827022E4A
:101300002295207F2025032E322F22952F70022632
:10131000269532272327220F220F220F2025838193
:101320002827022E2295207F2025032E322F22955A
:101330002F700226269532272327220F220F220FF5
:10134000202584812827022E2295207F2025032E08
:10135000322F22952F700226269532272327220F1F
:10136000220F220F202585812827022E2295207FFB
:101370002025032E322F22952F7002262695322704
:101380002327220F220F220F202586812827022EB5
:101390002295207F2025032E322F22952F700226A2
:1013A000269532272327220F220F220F20258781FF
:1013B0002827022E2295207F2025032E322F2295CA
:1013C0002F700226269532272327220F220F220F65
:1013D000202580852827022E2295207F2025032E78
:1013E000322F22952F700226269532272327220F8F
:1013F000220F220F20254185C9018427082E8295BE
:10140000807F8025092E982F82958F7008268695DB
:1014100098278927880F880F880F802508950FB691
:10142000F894A4B1209102022A2B24B921E0309132
:101430000202203029F0000025B1232B25B904C079
:1014400000000000000000C0000000000000309517
:1014500025B1232325B92EEA2A95F1F72BEE30B7D3
:1014600035FF0AC0A4B930910202309525B123237B
:1014700025B90FBE80E0089500002A9581F721E08C
:1014800030910202203029F0000025B1232B25B92C
:1014900004C000000000000000C0000000000000C8
:1014A000309525B1232325B9000024E52A95F1F7CD
:1014B000FC018CE0619170E0660F771F61607260E3
:1014C0009AE041E050E09A0126233723232B309104
:1014D0000202203029F0000025B1232B25B904C0D9
:1014E00000000000000000C0000000000000309577
:1014F00025B1232325B9000021E52A95F1F7440FF2
:10150000551F9A9501F78A95A9F620B7206120BF4B
:10151000A4B930910202309525B1232325B90FBE1D
:1015200081E00895F8940C944C15809148019091B5
:101530004901892B19F080E090E008958FEC91E04B
:10154000089581E090E090934901809348010895C7
:10155000CF93DF93CFECD1E019861882CE010E94A1
:1015600056099B878A870E94330340910802509155
:10157000090260910A0270910B0224E0829FC0016F
:101580001124092E000CAA0BBB0B480F591F6A1F10
:101590007B1F409308025093090260930A027093E4
:1015A0000B020E9433030E949A03809108029091DB
:1015B0000902A0910A02B0910B028093DF0190937F
:1015C000E001A093E101B093E20181E090E090930B
:1015D000E4018093E30120911701309118014091BB
:1015E000190150911A0160E070E080E89FE30E94C9
:1015F000671220911301309114014091150150910F
:1016000016010E94671260930F017093100180937E
:1016100011019093120180ED97E0DF91CF910C942E
:10162000C90220914F01309150012817390721F14B
:101630009093500180934F01009711F460E019C01E
:101640008130910539F40E94D90260914102809164
:10165000400210C08230910531F40E94D90260E04E
:101660008091420207C0039739F40E94D902609129
:101670002E0280E00C94D40208950E9482038370AD
:10168000823018F481E090E007C0823019F482E0E3
:1016900090E002C083E090E00C94110BEF92FF9277
:1016A0000F931F93CF93DF9340910802509109024B
:1016B00060910A0270910B028091DF019091E0012C
:1016C000A091E101B091E2018096A11DB11D8417A6
:1016D0009507A607B70708F078C080910802909197
:1016E0000902A0910A02B0910B028093DF0190934E
:1016F000E001A093E101B093E201C0914601D091D5
:101700004701C130D10509F048C01092470110923D
:10171000460110922501109224018BED91E00E9468
:10172000BA0380934A018D3318F180E090E00E9463
:10173000110BD0932501C0932401E0903801F09063
:1017400039010BE711E0C0E0D0E0CE15DF05B4F5BC
:10175000F80161917191819191918F0120E030E0C8
:101760004AE253E40E94D412882321F02196EDCF5F
:101770000E943D0B80912401909125010397C9F4AB
:1017800080E090E00E94110B81E090E090932701AF
:101790008093260184E090E008C0CD2B51F480E0D6
:1017A00090E00E94110B82E090E0909325018093DD
:1017B0002401109239011092380107C083E090E0B3
:1017C0009093250180932401D5CFDF91CF911F9174
:1017D0000F91FF90EF9008950E94760085E99AE0BE
:1017E000909304018093030181EA9AE090930201AF
:1017F0008093010186E69CE09093060180930501A9
:1018000062ED71E188EA9AE00E94720180E090E066
:1018100008958530910528F4FC01E55EFE4F808136
:1018200001C08BEB90913E029093CF018093D00149
:101830008FEC91E00E9456099093DA018093D901D0
:1018400010924901109248010895CF93DF9320E050
:1018500030E04AE754E460913E0170913F0180918D
:101860004001909141010E9438140E945213CFEC24
:10187000D1E020913E0228832AEC29839A838B832E
:101880007C836D83CE010E9456099B878A871092C4
:10189000490110924801DF91CF910895409138019C
:1018A00050913901E1E5F1E020E030E024173507FF
:1018B00044F4619171916817790731F02F5F3F4FC0
:1018C000F5CF8FEF9FEF0895C9010895CF92DF9272
:1018D000EF92FF920F931F93CF93DF938C0121E040
:1018E00030E03093470120934601FB0180819181D4
:1018F000A281B3818093DB019093DC01A093DD0191
:10190000B093DE018091260190912701892B09F087
:101910004AC080912401909125010E94090C809178
:10192000240190912501892B09F4B3C0F801C081ED
:10193000D0E0CE010E944E0C9C01F801618170E064
:1019400080E090E02F3FFFEF3F0771F0220F331F41
:10195000220F331FE901C558DE4F0E9483136883AD
:1019600079838A839B8395C0009138011091390156
:10197000F801EE0FFF1FEF5AFE4FD183C083E8013D
:10198000CC0FDD1FCC0FDD1FC558DE4F0E94831327
:10199000688379838A839B83C80101969093390178
:1019A0008093380176C0F80181818A3AA1F41092BF
:1019B000270110922601309325012093240181E014
:1019C00090E0DF91CF911F910F91FF90EF90DF900A
:1019D000CF900C94090C8A3C09F051C0F801C081E9
:1019E000D0E062817381762767277627CB01A0E05C
:1019F000B0E0BA2FA92F982F88272481822BBA2FE5
:101A0000A92F982F88272581BC01CD01622B0E9428
:101A1000811320E030E04AE754E40E94D9126B01C0
:101A20007C01CE010E944E0C8F3FFFEF9F0761F0BB
:101A3000880F991F880F991FFC01E558FE4FC0823F
:101A4000D182E282F3821BC08091380190913901EA
:101A5000FC01EE0FFF1FEF5AFE4FD183C083FC0144
:101A6000EE0FFF1FEE0FFF1FE558FE4FC082D18221
:101A7000E282F38201969093390180933801DF91DD
:101A8000CF911F910F91FF90EF90DF90CF900C942A
:101A9000250CDF91CF911F910F91FF90EF90DF9078
:101AA000CF900895CF92DF92EF92FF92CF93DF9382
:101AB000C0E0D0E0C12CD12C76010E94E9028F3F1A
:101AC0002FEF920749F0092E000CAA0BBB0BC80E92
:101AD000D91EEA1EFB1E2196C03981E0D80768F3A3
:101AE000C701B60120E931E040E050E00E94B9149E
:101AF000C901DF91CF91FF90EF90DF90CF900895D3
:101B00004F925F926F927F928F929F92AF92BF920D
:101B1000CF92DF92EF92FF92CF93DF9300D000D06D
:101B2000CDB7DEB78091240190912501049709F08B
:101B30004FC01092E4011092E30110923E01109206
:101B40003F01109240011092410124E130E03A83BC
:101B500029830E94520DBC0180E090E00E94811315
:101B600020913E0130913F0140914001509141014F
:101B70000E94681260933E0170933F018093400180
:101B800090934101A981BA811197BA83A983AB2BA4
:101B900001F720E030E040EA51E40E94D91260935E
:101BA0003E0170933F0180934001909341018CED81
:101BB00095E00E94C90280E00E94090784E690E057
:101BC0000E94C90285E090E0909325018093240152
:101BD0000E94250C8091240190912501059709F020
:101BE0008CC1409108025091090260910A027091E3
:101BF0000B028091DF019091E001A091E101B09191
:101C0000E2018896A11DB11D84179507A607B707A5
:101C100008F0FBC08091080290910902A0910A028D
:101C2000B0910B028093DF019093E001A093E1015A
:101C3000B093E2018090380190903901EBE7F1E038
:101C4000FA83E983C12CD12C760180E090E05C011D
:101C5000BFEFAB1ABB0A881599052CF5A981BA818B
:101C60006D917D918D919D91BA83A983A701960174
:101C70000E9467122B013C01B5010B2C000C880B54
:101C8000990B0E9483139B01AC01C301B2010E9416
:101C9000D9129B01AC01C701B6010E9468126B0109
:101CA0007C01C501D4CFC0924201D0924301E092A1
:101CB0004401F09245018091E3019091E401019685
:101CC0009093E4018093E3010E94520DBC0180E0F7
:101CD00090E00E9481136B017C0160933A01709344
:101CE0003B0180933C0190933D018091380190919C
:101CF0003901892B41F4C0924201D0924301E09214
:101D00004401F09245018091E3019091E401843116
:101D100091050CF564E670E00E94A514072E000CF6
:101D2000880B990B0E94831320910F0130911001B1
:101D300040911101509112010E9438142091130119
:101D40003091140140911501509116010E946812C2
:101D50004B015C0108C0E4EA8E2EE0E79E2EEDE721
:101D6000AE2EEFE3BE2E8091170190911801A09145
:101D70001901B0911A0189839A83AB83BC832091A6
:101D80003E0130913F014091400150914101BC0121
:101D9000CD010E9438142B013C0120914201309169
:101DA00043014091440150914501C501B4010E9495
:101DB00038149B01AC01C301B2010E9468122B01CF
:101DC0003C0129813A814B815C8160E070E080E8D0
:101DD0009FE30E946712A50194010E946712A70168
:101DE00096010E9438149B01AC01C301B2010E940C
:101DF000681260933E0170933F018093400190937D
:101E00004101109239011092380160913E017091A8
:101E10003F0180914001909141010E944B13CB0101
:101E20006DE770E00E94A514CB0168E070E00E94AD
:101E3000A5149C013595279535952795422F43701C
:101E40009C0122703327220F331F220F331F242BB4
:101E50008170992774E0880F991F7A95E1F7822B9A
:101E60000E9409078091E3019091E4018436910575
:101E700009F043C060913E0170913F0180914001A3
:101E8000909141010E944B13709333016093320192
:101E900082E090E09093270180932601E12CF12CC1
:101EA000C701827099279C01220F331F220F331F15
:101EB000C7018170992734E0880F991F3A95E1F79F
:101EC000822B97013595279535952795822B0E9472
:101ED000090784E690E00E94C9029FEFE91AF90A17
:101EE000A8E0EA16F104E1F68091E3019091E401A3
:101EF00001969093E4018093E3010F900F900F906F
:101F00000F90DF91CF91FF90EF90DF90CF90BF9037
:101F1000AF909F908F907F906F905F904F900895BB
:101F20004F925F926F927F928F929F92AF92BF92E9
:101F3000CF92DF92EF92FF920F931F93CF93DF9395
:101F4000409108025091090260910A0270910B02BF
:101F50008091DF019091E001A091E101B091E20157
:101F60008896A11DB11D84179507A607B70708F02D
:101F70009CC08091080290910902A0910A02B09140
:101F80000B028093DF019093E001A093E101B093F5
:101F9000E201C0913801D0913901209751F08BE7CF
:101FA000A82E81E0B82EC12CD12C760180E090E0E3
:101FB00011C080913E0190913F01A0914001B091EC
:101FC00041018093420190934301A0934401B09357
:101FD000450131C08C010F5F1F4F8C179D071CF509
:101FE000F50161917191819191915F01A701960134
:101FF0000E9467122B013C01B801012E000C880BD6
:10200000990B0E9483139B01AC01C301B2010E9492
:10201000D9129B01AC01C701B6010E9468126B0185
:102020007C01C801D7CFC0924201D0924301E09217
:102030004401F0924501C0901701D0901801E09042
:102040001901F0901A01A701960160E070E080E8A4
:102050009FE30E9467122091420130914301409119
:102060004401509145010E9438144B015C012091BC
:102070003E0130913F014091400150914101C70123
:10208000B6010E9438149B01AC01C501B4010E9445
:10209000681260933E0170933F01809340019093DA
:1020A0004101109239011092380160913E01709106
:1020B0003F0180914001909141010E944B13709328
:1020C0003301609332010E94520D8C0190933101D3
:1020D000809330018091320190913301B801681BE7
:1020E000790B072E000C880B990B0E9483139F77A6
:1020F0000E944B13EB0170932F0160932E016091AE
:10210000360170913701601B710B072E000C880B94
:10211000990B0E9483139F770E944B13E297A4F5BB
:1021200080E090E00E94110B85E10E94090784E69F
:1021300090E00E94C90280E00E94090788EC90E0CC
:102140000E94C90285E10E94090784E690E00E948E
:10215000C90280E00E94090788EC90E00E94C90251
:1021600080ED97E0DF91CF911F910F91FF90EF905D
:10217000DF90CF90BF90AF909F908F907F906F90A7
:102180005F904F900C94C90280910D0190910E01C7
:10219000861797070CF093C08CE30E94090784E62A
:1021A00090E00E94C902C0913001D0913101D093DA
:1021B0003701C093360100912E0110912F018091BB
:1021C000340190913501B801681B790B072E000C82
:1021D000880B990B0E9483136B017C0160932A0189
:1021E00070932B0180932C0190932D011093350156
:1021F00000933401BE01DD0F880B990B0E948313FD
:1022000060933A0170933B0180933C0190933D01B0
:1022100020E030E0A901C701B6010E94D41287FF77
:1022200011C081E090E00E94110B84E00E94090738
:1022300084E690E00E94C90280E00E94090788ECD1
:1022400090E03AC020E030E040E85FE3C701B6012B
:102250000E94331418160CF04DC00E94820380E0D7
:1022600090E00E94110B85E10E94090784E690E04E
:102270000E94C90283E090E00E94110B80E10E945D
:10228000090784E690E00E94C90280E00E940907E5
:1022900080ED97E00E94C90281E090E00E94110B5E
:1022A00083E30E94090782E390E00E94C90280E074
:1022B0000E94090780E991E00E94C9021BC081E0E9
:1022C00090E00E94110B85E00E94090784E690E0EF
:1022D0000E94C90280E00E94090788EC90E00E94F9
:1022E000C9028091280190912901019690932901BA
:1022F00080932801809128019091290189970CF4FD
:1023000040C010922901109228010E94D90264EB6A
:1023100084EB0E94D40280E991E00E94C9020E94ED
:10232000820390E0843B910534F483E090E00E94C6
:10233000110B80E105C082E090E00E94110B81E06A
:102340000E94090784E690E00E94C90280E00E9492
:10235000090780ED97E00E94C90281E090E0DF91DB
:10236000CF911F910F91FF90EF90DF90CF90BF9092
:10237000AF909F908F907F906F905F904F900C9454
:10238000110BDF91CF911F910F91FF90EF90DF9094
:10239000CF90BF90AF909F908F907F906F905F9005
:1023A0004F900895809126019091270181309105E9
:1023B00031F08230910581F0892B61F50FC00E94C8
:1023C000800D82E390E00E94C90280E00E9409072C
:1023D00082E390E00C94C9020C94900F0E944E0B83
:1023E00080912401909125018130910571F01CF4B8
:1023F000892B39F008958230910529F0039739F03F
:10240000089584E005C081E003C080E101C084E15B
:102410000C94090708958F929F92AF92BF92CF922A
:10242000DF92EF92FF92CF93DF93EC016881798185
:102430008A819B81611571058105910521F464E212
:1024400079ED8BE597E02DE133EF41E050E00E941C
:10245000DB1449015A019B01AC01A7EAB1E40E94D7
:102460000F156B017C01ACEEB4EFA50194010E9445
:102470001D15DC01CB018C0D9D1DAE1DBF1DB7FFD1
:1024800003C00197A109B04888839983AA83BB83BD
:102490009F77DF91CF91FF90EF90DF90CF90BF902B
:1024A000AF909F908F9008950E940B12089587E03F
:1024B00091E00E940B120895A0E0B0E08093070124
:1024C00090930801A0930901B0930A010895505810
:1024D000BB27AA270E947F120C94F9130E94EB13CA
:1024E00038F00E94F21320F039F49F3F19F426F4DB
:1024F0000C94E8130EF4E095E7FB0C94E213E92F3B
:102500000E940A1458F3BA176207730784079507E5
:1025100020F079F4A6F50C942C140EF4E0950B2E13
:10252000BA2FA02D0B01B90190010C01CA01A00125
:102530001124FF27591B99F0593F50F4503E68F180
:102540001A16F040A22F232F342F4427585FF3CFC1
:10255000469537952795A795F0405395C9F77EF492
:102560001F16BA0B620B730B840BBAF09150A1F0DB
:10257000FF0FBB1F661F771F881FC2F70EC0BA0F61
:10258000621F731F841F48F4879577956795B795E9
:10259000F7959E3F08F0B0CF9395880F08F09927E4
:1025A000EE0F9795879508950E94BE1308F481E079
:1025B00008950E94ED120C94F9130E94F21358F042
:1025C0000E94EB1340F029F45F3F29F00C94E213D2
:1025D00051110C942D140C94E8130E940A1468F302
:1025E0009923B1F3552391F3951B550BBB27AA27CC
:1025F00062177307840738F09F5F5F4F220F331F06
:10260000441FAA1FA9F335D00E2E3AF0E0E832D0CD
:1026100091505040E695001CCAF72BD0FE2F29D0D0
:10262000660F771F881FBB1F261737074807AB07A2
:10263000B0E809F0BB0B802DBF01FF2793585F4F17
:102640003AF09E3F510578F00C94E2130C942D144F
:102650005F3FE4F3983ED4F3869577956795B795F9
:10266000F7959F5FC9F7880F911D9695879597F904
:102670000895E1E0660F771F881FBB1F621773077D
:102680008407BA0720F0621B730B840BBA0BEE1F92
:1026900088F7E09508950E9452136894B1110C9444
:1026A0002D1408950E94121488F09F5798F0B92FA6
:1026B0009927B751B0F0E1F0660F771F881F991F77
:1026C0001AF0BA95C9F714C0B13091F00E942C14D9
:1026D000B1E008950C942C14672F782F8827B85FE9
:1026E00039F0B93FCCF3869577956795B395D9F7CF
:1026F0003EF490958095709561957F4F8F4F9F4FD9
:102700000895E89409C097FB3EF4909580957095E4
:1027100061957F4F8F4F9F4F9923A9F0F92F96E92D
:10272000BB279395F695879577956795B795F111A2
:10273000F8CFFAF4BB0F11F460FF1BC06F5F7F4F3F
:102740008F4F9F4F16C0882311F096E911C0772351
:1027500021F09EE8872F762F05C0662371F096E85A
:10276000862F70E060E02AF09A95660F771F881F29
:10277000DAF7880F9695879597F90895990F0008CD
:10278000550FAA0BE0E8FEEF16161706E807F90743
:10279000C0F012161306E407F50798F0621B730BDE
:1027A000840B950B39F40A2661F0232B242B252B5F
:1027B00021F408950A2609F4A140A6958FEF811D02
:1027C000811D089597F99F6780E870E060E00895A3
:1027D0009FEF80EC089500240A9416161706180639
:1027E0000906089500240A94121613061406050615
:1027F0000895092E0394000C11F4882352F0BB0FA6
:1028000040F4BF2B11F460FF04C06F5F7F4F8F4F08
:102810009F4F089557FD9058440F551F59F05F3F43
:1028200071F04795880F97FB991F61F09F3F79F0F2
:1028300087950895121613061406551FF2CF469574
:10284000F1DF08C0161617061806991FF1CF8695F6
:102850007105610508940895E894BB2766277727DA
:10286000CB0197F908950E94BE1308F48FEF0895E5
:102870000E944B140C94F9130E94EB1338F00E9441
:10288000F21320F0952311F00C94E2130C94E8134A
:1028900011240C942D140E940A1470F3959FC1F317
:1028A000950F50E0551F629FF001729FBB27F00DFE
:1028B000B11D639FAA27F00DB11DAA1F649F662753
:1028C000B00DA11D661F829F2227B00DA11D621FA2
:1028D000739FB00DA11D621F839FA00D611D221F5C
:1028E000749F3327A00D611D231F849F600D211D40
:1028F000822F762F6A2F11249F5750409AF0F1F0C3
:1029000088234AF0EE0FFF1FBB1F661F771F881F2B
:1029100091505040A9F79E3F510580F00C94E2136E
:102920000C942D145F3FE4F3983ED4F3869577958D
:102930006795B795F795E7959F5FC1F7FE2B880FD1
:10294000911D9695879597F9089597FB072E16F494
:10295000009407D077FD09D00E94221507FC05D00E
:102960003EF4909581959F4F0895709561957F4FA6
:102970000895A1E21A2EAA1BBB1BFD010DC0AA1FC0
:10298000BB1FEE1FFF1FA217B307E407F50720F0D8
:10299000A21BB30BE40BF50B661F771F881F991F53
:1029A0001A9469F760957095809590959B01AC019C
:1029B000BD01CF010895052E97FB1EF400940E94DF
:1029C000F21457FD07D00E94B91407FC03D04EF44F
:1029D0000C94F21450954095309521953F4F4F4FF0
:1029E0005F4F089590958095709561957F4F8F4FBB
:1029F0009F4F0895EE0FFF1F0590F491E02D09946D
:102A0000A29FB001B39FC001A39F700D811D11242F
:102A1000911DB29F700D811D1124911D08950E947A
:102A20000015A59F900DB49F900DA49F800D911D42
:102A300011240895B7FF0C940F150E940F15821BE7
:102A4000930B0895AA1BBB1B51E107C0AA1FBB1F14
:102A5000A617B70710F0A61BB70B881F991F5A952A
:102A6000A9F780959095BC01CD010895F999FECF05
:102A700092BD81BDF89A992780B50895262FF999BE
:102A8000FECF1FBA92BD81BD20BD0FB6F894FA9A51
:0C2A9000F99A0FBE01960895F894FFCF4C
:102A9C00AA7500720071000100000064001400CDE2
:102AAC00CCCC3E9A99193F0AD7233CAAABBBCACAD5
:00000001FF
